:020000040000FA
:060000000A128A110C280F
:10000800FE00030EF1000A08F2000A128A1169299B
:100018000A128A110F28F801F901FA0183010A125C
:100028008A11A72800308A000408840A820700344D
:100038000A3455347334653420344C343334203422
:100048003D342034623420347C3420344C3434340D
:1000580020343D34203464342034703461347234B4
:1000680061342034613470346134673461347234FB
:100078000A3400340A3455347334653420344C342B
:10008800333420343D342034613420347C342034FB
:100098004C34343420343D342034633420347034C8
:1000A80061347234613420346134633465346E34BD
:1000B80064346534723400340A3463346F3464341D
:1000C800693467346F34203464346934673469348C
:1000D80074346F34203469346E34763461346C345B
:1000E800693464346F3400340A344C343334203483
:1000F8006134703461346734613464346F3400348B
:100108000A344C3434342034613470346134673404
:10011800613464346F3400340A344C34333420345A
:1001280061346334653473346F3400340A344C34C6
:100138003434203461346334653473346F340034B8
:100148000A340A3400348316031306108610061185
:1001580086110130810005308312031381008B164C
:100168008316031387170713193099001813981665
:1001780018121815831203139817181318160B174B
:100188008B17831603138C1683120313A3012330D2
:100198000A128A1142210A128A1101300A128A119E
:1001A80042210A128A118312031323080319DD2836
:1001B800DE28D7280A128A11F5200A128A110B3074
:1001C80083120313A2002630A1005D30A000A00B0B
:1001D800EB28A10BEB28A20BEB28C8280A128A11DE
:1001E8000C282B298312031306115D300A128A1179
:1001F80042210A128A114129831203130615753008
:100208000A128A1142210A128A1141298312031300
:10021800861169300A128A1142210A128A1141296B
:100228008312031386157F300A128A1142210A129B
:100238008A11412945300A128A1142210A128A116B
:1002480089300A128A1142210A128A1141297A0830
:10025800F600F7017708003A031933291E297608B2
:10026800613A03190029033A0319F628013A0319D8
:100278001429073A03190A291E290800F500F30171
:10028800F4015B297308750784000A128A11162085
:100298000A128A118312031399000130F307031815
:1002A800F40A0030F4070C1E5A295B2957297308F1
:1002B800750784000A128A1116200A128A11003A58
:1002C800031D6729682946290800831203138C1E19
:1002D8006E296F2980291819722973297729981C82
:1002E800762977297A291812181606151A08F0009F
:1002F8007008FA00A301A30A0B1D83298429872902
:100308000B110530810072088A00710E8300FE0E01
:040318007E0E09004C
:02400E00393F38
:00000001FF
