:020000040000FA
:060000000A128A11FC2F18
:10050E00F800F401F5017008F200F3017208F6002C
:10051E007308F700781C942A952A9B2A7608F4070C
:10052E000318F50A7708F50701300310F60DF70DDD
:10053E00FF3E031D9C2A0310F80C7808031DA82A01
:10054E00A92A912A7508F1007408F000080003101A
:10055E00831203133C0D3D0DBE003E08C40044083B
:10056E00031DBA2ABB2AC42A0030BD000030BC00CD
:10057E000030BB000030BA00292B3A08BE003B0801
:10058E00BF003C08C0003D08C1001F300310C10C65
:10059E00C00CBF0CBE0CFF3E031DCD2A3E08C20090
:1005AE004208C300BC17FF30BA05FF30BB05FF3051
:1005BE00BC050030BD059630C402C41FE72AE82AE8
:1005CE00022B4408803A973E0318EE2AEF2AF02AAF
:1005DE00BB2A01300310BD0CBC0CBB0CBA0CFF3E89
:1005EE00031DF12A0130BE003E08C407031D002B77
:1005FE00012BF02A192B20304402031C072B082B49
:10060E00142BBB2A0130BE000310BA0DBB0DBC0D5E
:10061E00BD0DBE0B0B2B0130C4024408031D182B5D
:10062E00192B092B430803191D2B1E2B292BBA0935
:10063E00BB09BC09BD09BA0A0319BB0A0319BC0AD6
:10064E000319BD0A08008316031307110F30831216
:10065E0003139700FF3083160313920083120313C4
:10066E009501013092001215831603138717071395
:10067E0019309900181398161812181583120313AF
:10068E009817181318160030CC000030CB0000302D
:10069E00CA000030C9008C1E552B562B642B18191E
:1006AE00592B5A2B5E2B981C5D2B5E2B602B181230
:1006BE0018161A08C5004508CD004D08C500C6011C
:1006CE00C701C8014808F3004708F2004608F100C8
:1006DE004508F00001300A128A11E1230A128A112C
:1006EE00730883120313A7007208A6007108A500F1
:1006FE007008A4004030A300D530A2007030A100D5
:10070E00A430A0000A128A119B240A128A118312A5
:10071E0003132308BD002208BC002108BB002008DB
:10072E00BA000A128A11AE220A128A118312031318
:10073E003B08CF003A08CE0003304F02FF300319BA
:10074E004E020318AB2BAC2BDD2B0330831203139D
:10075E00C7008A30C6005530C500C50BB42BC60B7A
:10076E00B42BC70BB42B831203134F08C6004E08CD
:10077E00C5000310C60CC50C0310C60CC50C4508ED
:10078E0095004E080339C50003300310C50DFF3E1A
:10079E00031DCC2B0310450DC600460897043330BD
:1007AE00CE070318CF0A0030CF07522B522B0A1256
:1007BE008A110028F80078080319E62BE72BFB2B8B
:1007CE00F31FEA2BEB2BFB2B7009FA007109FB00D0
:1007DE007209FC007309FD00FA0A0319FB0A0319DA
:1007EE00FC0A0319FD0A032C7308FD007208FC00B5
:1007FE007108FB007008FA0073087204710470042B
:10080E00031D0A2C0B2C142C0030F3000030F200C8
:10081E000030F1000030F0009A2C9630F40074088D
:10082E00F900262C0130F4007408F907013003108A
:10083E00FD0CFC0CFB0CFA0CFF3E031D1E2CFE30B7
:10084E007D05031D2B2C2C2C192C482C0130F4006B
:10085E007408F9070130FA07003003180130FB075E
:10086E00003003180130FC07003003180130FD077B
:10087E0001300310FD0CFC0CFB0CFA0CFF3E031DAB
:10088E00402CFF307D05031D4D2C4E2C2D2C5A2C4B
:10089E000130F9020130F4000310FA0DFB0DFC0DCE
:1008AE00FD0DF40B532CFC1B5D2C5E2C642C0230C6
:1008BE0079020318632C642C4F2C7918672C682C42
:1008CE00702CFF30FA05FF30FB057F30FC05FF3042
:1008DE00FD050310F90C7908F400F501F601F70196
:1008EE0018300310F40DF50DF60DF70DFF3E031D38
:1008FE00782C7408FA047508FB047608FC04770853
:10090E00FD04780803198C2C8D2C922CF31F902C3F
:10091E00912C922CFD177D08F3007C08F2007B08C9
:10092E00F1007A08F00008008312031323088039BF
:10093E00A8002808AD002308A8002807A900290848
:10094E00B300A21FAB2CAC2CAD2C331433080319FF
:10095E00B12CB22CC12C330A031DB62CB72CBF2CD4
:10096E000030A3000030A2000030A1000030A00033
:10097E00A217C92C0030A3000030A2000030A10045
:10098E000030A00027088039A8002808AD062708E7
:10099E00A8002807A9002908B200A61FD72CD82C1A
:1009AE00D92C321432080319DD2CDE2CED2C320A30
:1009BE00031DE22CE32CEB2C0030A7000030A60028
:1009CE000030A5000030A400A617F52C0030A700BB
:1009DE000030A6000030A5000030A4003208031934
:1009EE00F92CFA2CFF2C3308031DFE2CFF2C082D9E
:1009FE000030A3000030A2000030A1000030A000A3
:100A0E00FB2F2008A8002808F00026080A128A11D9
:100A1E0087220A128A11710883120313B900700813
:100A2E00B8003808A800A901AA01AB012B08B10033
:100A3E002A08B0002908AF002808AE003908A8001F
:100A4E00A901AA01AB012B08B7002A08B600290894
:100A5E00B5002808B4002108A8002808F0002508D1
:100A6E000A128A1187220A128A117108831203133D
:100A7E00B9007008B8003808A800A901AA01AB0196
:100A8E002808AE07290803110318013E0319502D3B
:100A9E00AF072A0803110318013E0319572DB0079B
:100AAE002B0803110318013E03195E2DB1073908F7
:100ABE00A800A901AA01AB012808B407290803114F
:100ACE000318013E03196C2DB5072A0803110318EC
:100ADE00013E0319732DB6072B0803110318013EAF
:100AEE0003197A2DB7072208A8002808F000240859
:100AFE000A128A1187220A128A11710883120313AD
:100B0E00B9007008B8003808A800A901AA01AB0105
:100B1E002808AE07290803110318013E0319982D62
:100B2E00AF072A0803110318013E03199F2DB007C2
:100B3E002B0803110318013E0319A62DB10739081E
:100B4E00A800A901AA01AB012808B40729080311BE
:100B5E000318013E0319B42DB5072A080311031813
:100B6E00013E0319BB2DB6072B0803110318013ED6
:100B7E000319C22DB7070830A8000310AE0DAF0D34
:100B8E00B00DB10DA80BC42D2108A8002808F00047
:100B9E0024080A128A1187220A128A1171088312F6
:100BAE000313B9007008B8003808A8003908A90066
:100BBE00AA01AB012808AE07290803110318013E4C
:100BCE000319EA2DAF072A0803110318013E031972
:100BDE00F12DB0072B0803110318013E0319F82D50
:100BEE00B1072008A8002808F00025080A128A116B
:100BFE0087220A128A11710883120313B900700832
:100C0E00B8003808A8003908A900AA01AB012808C5
:100C1E00AE07290803110318013E0319172EAF075B
:100C2E002A0803110318013E03191E2EB0072B08C4
:100C3E0003110318013E0319252EB1070830A80031
:100C4E000310AE0DAF0DB00DB10DA80B272E200861
:100C5E00A8002808F00024080A128A1187220A1216
:100C6E008A11710883120313B9007008B80038088E
:100C7E00A8003908A900AA01AB012808AE07290867
:100C8E0003110318013E03194D2EAF072A08031155
:100C9E000318013E0319542EB0072B080311031835
:100CAE00013E03195B2EB1072108A8002808F000A9
:100CBE0026080A128A1187220A128A1171088312D3
:100CCE000313B9007008B8003808A8003908A90045
:100CDE00AA01AB012808B407290803110318013E25
:100CEE0003197A2EB5072A0803110318013E0319BA
:100CFE00812EB6072B0803110318013E0319882E07
:100D0E00B7072208A8002808F00025080A128A1141
:100D1E0087220A128A11710883120313B900700810
:100D2E00B8003808A8003908A900AA01AB012808A4
:100D3E00B407290803110318013E0319A72EB5079E
:100D4E002A0803110318013E0319AE2EB6072B080D
:100D5E0003110318013E0319B52EB7072208A80088
:100D6E002808F00026080A128A1187220A128A1110
:100D7E00710883120313B9007008B8003808A80070
:100D8E003908A900AA01AB0108300310A80DA90D5E
:100D9E00AA0DAB0DFF3E031DCC2E2808B407290863
:100DAE0003110318013E0319DD2EB5072A0803119E
:100DBE000318013E0319E42EB6072B08031103187E
:100DCE00013E0319EB2EB7072E08A8002F08A90025
:100DDE003008AA003108AB0018300310AB0CAA0C77
:100DEE00A90CA80CFF3E031DF42E2808B4072908F1
:100DFE0003110318013E0319052FB5072A08031125
:100E0E000318013E03190C2FB6072B080311031804
:100E1E00013E0319132FB7070830A8000310AE0DBB
:100E2E00AF0DB00DB10DA80B152F33083207A8006A
:100E3E00A901A90D2808823EB80029080318013E11
:100E4E00FF3EB900472F0130A8000310B40DB50DB9
:100E5E00B60DB70DA80B2C2FB11F362F372F382FED
:100E6E0034140130A8000310AE0DAF0DB00DB10D4E
:100E7E00A80B3A2FFF30B8070318B90AFF30B9078D
:100E8E00B61F4A2F4B2F2A2FB201B11F4F2F502FB3
:100E9E006C2FFF302E05A800FF302F05A900FF3064
:100EAE003005AA007F303105AB002B082A04290437
:100EBE0028040319632F642F672FB201B20A6C2F17
:100ECE00341C6A2F6B2F6C2F642F32080319702F6E
:100EDE00712FA22F0130B407003003180130B5076F
:100EEE00003003180130B607003003180130B70781
:100EFE00371C822F832FA22F3408A8003508A90093
:100F0E003608AA003708AB000130AC002B0DAB0C35
:100F1E00AA0CA90CA80CAC0B8D2F2B08B7002A0815
:100F2E00B6002908B5002808B4000130B807031828
:100F3E00B90A0030B9073908803AFF0080307F02C5
:100F4E00031DAB2FFF303802031CAE2FAF2FBA2F6D
:100F5E007F3083120313B7008030B6000030B50027
:100F6E000030B400EF2F831203133908803AFF00CC
:100F7E0080307F02031DC52F013038020318C82FA1
:100F8E00C92FD52F003083120313B7000030B600DF
:100F9E000030B5000030B400AD01EF2F8312031303
:100FAE003808A8002808B300FF30B405FF30B50597
:100FBE007F30B6050030B705331CE62FE72FE82F3C
:100FCE00B6173308A8000310280CA9002908B7008B
:100FDE002D08A8002808B7043708A3003608A20079
:100FEE003508A1003408A000080083010A128A11F6
:020FFE002A2B9C
:02400E00393F38
:00000001FF
