:020000040000FA
:060000000A128A110C280F
:10000800FE00030EF0000A08F1000A128A11562AAF
:100018000A128A110F2883010A128A111328303014
:1000280083120313A8002808AF003030A80028085E
:10003800B0008316031385141F17831203139F1729
:100048001F131F08C73908389F00831603139F170B
:100058001F08F03902389F00831203131F14013060
:1000680083160313810005308312031381008B1656
:100078008316031387170713193099001813981656
:1000880018121815831203139817181318160B173C
:100098008B17831603138C16831203131F151F194E
:1000A8005628572853281E08B200831603131E0823
:1000B80083120313B100FF30F8000330F90032084F
:1000C800F3003108F2003230F4000030F5000A1273
:1000D8008A1111220A128A117308FB007208FA00A9
:1000E8000A128A116A210A128A11790883120313E3
:1000F800B2007808B1003208A5003108A400293000
:10010800A8002808A6000A128A11C6200A128A1115
:10011800831203132C082F06031D932894289A286A
:100128002D083006031999289A2850282C08A80069
:100138002808AF002D08A8002808B00001300A12CE
:100148008A11EA210A128A11831203132C089900D2
:1001580019300A128A11EA210A128A11831203132A
:100168002D08990014300A128A11EA210A128A11FC
:1001780017300A128A11EA210A128A1150280A1223
:100188008A110C281030F8002730F9008312031365
:100198002508FB002408FA000A128A116A210A12AB
:1001A8008A117808303E83120313A70026088400BA
:1001B800270883138000E830F8000330F900250889
:1001C800F5002408F4001030F2002730F3000A127A
:1001D8008A11B0210A128A117308FB007208FA000A
:1001E8000A128A116A210A128A117808303E83128B
:1001F8000313A700260A84002708831380006430AD
:10020800F8000030F9002508F5002408F400E8306B
:10021800F2000330F3000A128A11B0210A128A117F
:100228007308FB007208FA000A128A116A210A127E
:100238008A117808303E83120313A7002608023E6D
:1002480084002708831380000A30F8000030F90082
:100258002508F5002408F4006430F2000030F300AB
:100268000A128A11B0210A128A117308FB00720857
:10027800FA000A128A116A210A128A117808303E95
:1002880083120313A7002608033E8400270883135C
:1002980080000A30F2000030F3002508F500240839
:1002A800F4000A128A11B0210A128A117208303E2B
:1002B80083120313A7002608043E8400270883132B
:1002C80080002608053E840080010800831203137D
:1002D800A101A20178087904031973297429AB29AB
:1002E800A301A30A822901300310F80DF90DFF3E7E
:1002F800031D78290130A0002008A307F91F8529CC
:100308008629772901300310A10DA20DFF3E031D98
:10031800872979087B02031D932978087A02031C30
:10032800962997299E297808FA027908031CFB0365
:10033800FB02211401300310F90CF80CFF3E031DD9
:100348009F290130A302031DAA29AB298629220867
:10035800F9002108F8000800720873040319B52988
:10036800B629E529F701F70AC42901300310F20D6F
:10037800F30DFF3E031DBA290130F6007608F70792
:10038800F31FC729C829B92973087502031DCE2987
:1003980072087402031CD129D229D8297208F402E0
:1003A8007308031CF503F50201300310F30CF20C7B
:1003B800FF3E031DD9290130F702031DE429E52971
:1003C800C8297508F3007408F2000800F400F20167
:1003D800F301032A7208740784000A128A1136226C
:1003E8000A128A118312031399000130F2070318C5
:1003F800F30A0030F3070C1E022A032AFF297208A9
:10040800740784000A128A1136220A128A11003AE5
:10041800031D0F2A102AEE290800F601F701721CA5
:10042800162A172A1D2A7408F6070318F70A7508EA
:10043800F70701300310F40DF50DFF3E031D1E2ACA
:1004480001300310F30CF20CFF3E031D252A72083D
:100458007304031D302A312A132A7708F30076081B
:10046800F200080002308A000408840A8207003477
:10047800543465346E34733461346F3420344D34FD
:1004880065346E3473347534723461346434613471
:100498003A34203400342034563400340A340034DA
:1004A8002C340034831203138C1E5B2A5C2A672ABF
:1004B80018195F2A602A642A981C632A642A672A02
:1004C8001812181606140B1D6A2A6B2A6E2A0B11AD
:1004D8000530810071088A00700E8300FE0E7E0EC2
:0204E800090009
:02400E00393F38
:00000001FF
