:020000040000FA
:02000000F62FD9
:1003B8003134323433343434831203134A08FC00A2
:1003C8004908FB004808FA004708F9007930FA2282
:1003D8000800F300F201731CF229F329F7297008C9
:1003E800F1007108F2070310F00D0310F30C730805
:1003F800031DFF29002AEF2972080800F901112AB4
:1004080079087607840077080318770AFF00002424
:1004180063220130F8007808F90779087607840024
:1004280077080318770A83120313FF000024003AA1
:10043800031D1F2A202A042A0800F5007830F2003C
:100448007208F600F7017608A125F200770875070B
:10045800F300730884007208831380000130F200EF
:100468007208F6070130F2007208F70704307702C5
:10047800031C3F2A402A272A0800F5008312031389
:1004880005147508AA228312031386110430F40098
:10049800E430F300F30B4E2AF40B4E2A00008312CB
:1004A800031305100430F400E430F300F30B5A2A68
:1004B800F40B5A2A00008312031305140800F500F0
:1004C8008312031305147508AA22831203138615D1
:1004D8000430F400E430F300F30B702AF40B702AB4
:1004E80000008312031305100430F400E430F30015
:1004F800F30B7C2AF40B7C2A0000831203130514E7
:100508000800F500F401F40AF601A22A760870073B
:10051800F1007108840083130008F200760875075B
:10052800F300730884000008720603199C2A9D2AA8
:100538009E2AF4010130F1007108F60704307602B2
:10054800031CA72AA82A8A2A74080800F100831223
:1005580003130612F2017108F0007208073C013E0D
:10056800B72A0310F00CFF3E031DB52A7018BD2AE8
:10057800C12A831203138615C42A83120313861112
:10058800061606120130F0007008F20708307202F1
:10059800031CCF2AD02AAF2A0800F20083160313BF
:1005A8009C18D72AD82AD22A72089B0070089A0069
:1005B8003F30F10071089C058312031303108B1F51
:1005C800E62AE72AE82A03148B13831603131C155B
:1005D80055309D00AA309D009C141C1183120313F2
:1005E800031CF72AF82AF92A8B170800F700783035
:1005F800F3007308F600F80178087707F30073082A
:10060800840083130008F4007408F0007608D122EF
:100618000D30F400FB30F300F30B102BF40B102B10
:10062800152B0130F3007308F6070130F300730847
:10063800F80704307802031C222B232B002B080018
:1006480083120313051086111A30F700F830F600EC
:10065800F60B2C2BF70B2C2B00008312031305141D
:10066800303041220730F7007D30F600F60B3A2B88
:10067800F70B3A2B30304122C730F600432BF60BEC
:10068800422B462B472B38304122083041220F306D
:100698004122013041223830412280304122080075
:1006A800FB01831203130508F6007608FA00F52B00
:1006B800FC017C08123E840084300318013E83123A
:1006C8000313FF000024F60076088504861F6D2BAF
:1006D8006E2B8F2B1A30F700F830F600F60B722BC2
:1006E800F70B722B000083120313861F7C2B7D2BC4
:1006F8008F2B882B0330F6007608F0007C08ED215C
:10070800013EF7007708FB0083120313861B8D2B2D
:100718008E2B7E2BEC2B061F922B932BB42B1A308F
:10072800F700F830F600F60B972BF70B972B000025
:1007380083120313061FA12BA22BB42BAD2B03305E
:10074800F6007608F0007C08ED21023EF7007708F5
:10075800FB0083120313061BB22BB32BA32BEC2B2A
:10076800861EB72BB82BD62B1A30F700F830F600B8
:10077800F60BBC2BF70BBC2B000083120313861E51
:10078800C62BC72BD62B861ACA2BCB2BC72B0330CD
:10079800F6007608F0007C08ED21033EF7007708A4
:1007A800FB00EC2B7C08123E840084300318013EC9
:1007B800FF000024FF3AF600760885050130F600B0
:1007C8007608FC0704307C02031CEB2BEC2B5D2B1A
:1007D8001A30F700F830F600F60BF02BF70BF02B79
:1007E80000007B080319F92BFA2B5C2B7A0883127B
:1007F800031385007B080800FF1B0A2C83137F184E
:1008080083170008840A0319FF0A08007F087F3944
:100818008A000408840A0319FF0A82000234043497
:1008280040348034413463346534733473346F3402
:1008380020345034653472346D3469347434693416
:1008480064346F34213400346F34203470346934A4
:100858006E34203465342034613470346534723435
:100868007434653420342A340034443469346734A9
:1008780069347434653420346E346F3476346134BA
:100888006D3465346E3474346534003450347234E5
:1008980065347334733469346F346E34653420349A
:1008A8002A342034703461347234613400344F3463
:1008B8007034633461346F34203449346E347634A0
:1008C80061346C34693464346134213400347034F4
:1008D800613472346134203463346F346E34663476
:1008E8006934673475347234613472340034413495
:1008F80063346534733473346F3420344E34653460
:100908006734613464346F342134003441347534CD
:10091800743465346E3474346934633461346334E4
:1009280061346F34213400344434693467346934B1
:100938007434653420346F3420346E346F34763434
:100948006F34003441347534743465346E3474341F
:1009580069346334613464346F342134003444348A
:100968006934673469347434653420346F3420341E
:10097800503449344E34003443346134643461347F
:10098800733474347234613464346F342134003411
:100998005534733475346134723469346F342034A7
:1009A8006E3461346F34003465346E3474347234A8
:1009B8006134723420346F34753420342334003475
:1009C8004E3465346334653473347334613472344B
:1009D80069346F340034533465346E3468346134A8
:1009E80020346E3461346F34003443346F346E34E1
:1009F80066346534723465342134003455347334C4
:100A080075346134723469346F3400345034493485
:100A18004E343A34003483120313A300A501532D36
:100A2800B830F4000B30F5005423303E8312031322
:100A3800A0002008A40024080319232D242D3F2DED
:100A48002408A00025082307A10021088400200805
:100A580083138000803041220A30F6008530F70089
:100A68000222831203132508C03E41223730F600C4
:100A78008430F7000222023083120313A2000430EC
:100A8800A100BA30A000A00B472DA10B472DA20B47
:100A9800472D013083120313A0002008A507043056
:100AA8002502031C582D592D142D08000130412210
:100AB80082304122B330F6008430F7000222C3307E
:100AC80041222E30F6008430F700022206308312CD
:100AD8000313A8001330A700AD30A600A60B722D93
:100AE800A70B722DA80B722D000001304122C030D7
:100AF80041222D300F2529302122B830F4000B3047
:100B0800F5005423303E83120313A6002608B200D2
:100B18003A303206031D912D922D9F2D2D30A600BF
:100B28002608F0002930852283120313A70027081E
:100B3800B1003108A02D00300800F10064008316D0
:100B480003139C18A82DA92DA22D71089B003F30D6
:100B5800F00070089C051C141A0808000130412296
:100B680080304122E430F6008430F7000222C030A1
:100B780041228A30F6008430F700022206308312C0
:100B88000313B5001330B400AD30B300B30BCA2D56
:100B9800B40BCA2DB50BCA2D00005A25003A03190B
:100BA800D62DD72DA22E83120313BF019A2E013002
:100BB8004122823041229830F6008430F700022228
:100BC800C13041222A30F6008430F70002220B306F
:100BD80083120313B5002630B4005D30B300B30BA5
:100BE800F32DB40BF32DB50BF32D0000013041228A
:100BF80036300F25B830F4000B30F5005423303E62
:100C080083120313B3003308C0003A304006031DB3
:100C18000E2E0F2E9A2E013041228030412239307B
:100C2800F6008430F7000222C03041222830F60056
:100C38008430F70002220B3083120313B5002630EC
:100C4800B4005D30B300B30B272EB40B272EB50BC1
:100C5800272E0000013041223A300F25B830F40029
:100C68000B30F5005423303E83120313B3003308CE
:100C7800C0003A304006031D422E432E9A2E3A30C9
:100C8800B3003308F0003630852283120313B40012
:100C98003408BE003E03031D522E532E7B2E3A30DD
:100CA800FA2201304122803041220230F60085309C
:100CB800F7000222C0304122C030F6008430F7002D
:100CC80002220B3083120313B5002630B4005D30C6
:100CD800B300B30B6D2EB40B6D2EB50B6D2E00004B
:100CE80083120313BF01BF0A083041229A2E013034
:100CF800412280304122EF30F6008430F700022292
:100D0800C0304122F930F6008430F70002220B305F
:100D180083120313B5002630B4005D30B300B30B63
:100D2800932EB40B932EB50B932E0000831203134E
:100D38003F080319A02EA12EDB2DC32E013041221E
:100D480080304122CC30F6008430F7000222C030D7
:100D58004122A630F6008430F70002220B308312BD
:100D68000313B5002630B4005D30B300B30BBA2EC0
:100D7800B40BBA2EB50BBA2E000008304122080079
:100D88000730831203139F00303083160313850046
:100D9800E7308600FE308312031385008601E021C8
:100DA800B830F4000B30F5005423303E831203139F
:100DB800C1004108C50045080319E32EE42ED42ECE
:100DC800242301304122803041224A30F600843009
:100DD800F7000222C0304122D830F6008430F700F4
:100DE8000222083083120313C3009D30C20005306D
:100DF800C100C10BFD2EC20BFD2EC30BFD2E000042
:100E080001304122803041226B30F6008430F700F7
:100E18000222B830F4000B30F5005423303E831220
:100E28000313C1004108C500E52F5A258312031397
:100E3800C1004108C4004403031D232F242FAD2FF4
:100E480001304122803041221630F6008430F7000C
:100E580002220B3083120313C3002630C2005D3018
:100E6800C100C10B352FC20B352FC30B352F000026
:100E780083120313C601023083120313C3008630A2
:100E8800C2009830C100C10B472FC20B472FC30BBC
:100E9800472F4E2F83120313023085060230831228
:100EA8000313C3008630C2009830C100C10B5A2F0B
:100EB800C20B5A2FC30B5A2F612F8312031304300E
:100EC8008506023083120313C3008630C2009830AF
:100ED800C100C10B6D2FC20B6D2FC30B6D2F742F6B
:100EE800403083120313C100410885060230831283
:100EF8000313C3008630C2009830C100C10B822F93
:100F0800C20B822FC30B822F892F803083120313C9
:100F1800C10041088506023083120313C3008630DE
:100F2800C2009830C100C10B972FC20B972FC30B7B
:100F3800972F9E2F013083120313C1004108C60763
:100F480004304602031CA92FAA2F3F2F0830412244
:100F5800D42E01304122803041227B30F60084308B
:100F6800F70002220B3083120313C3002630C2009D
:100F78005D30C100C10BBE2FC20BBE2FC30BBE2FED
:100F8800000008304122D42EB225D42E013041224F
:100F9800803041225B30F6008430F70002220B30AB
:100FA80083120313C3002630C2005D30C100C10B99
:100FB800DB2FC20BDB2FC30BDB2F000008304122D5
:100FC800D42E4508C100C2014208003A0319ED2F8A
:100FD800CA2F41083A3A0319192F063A0319C82F9C
:100FE800CA2F0028DC21C700DD21C800DE21C90086
:080FF800DF21CA008301C42EB1
:02400E00293F48
:00000001FF
