:020000040000FA
:100000000A128A11FC2F00308A000408840A820731
:1000100000345334313420347034723465347334E2
:10002000733469346F346E346134643461340A3447
:1000300000345334323420347034723465347334C1
:10004000733469346F346E346134643461340A3427
:1000500000345334313420346C34693462346534C0
:1000600072346134643461340A34003453343234C9
:1000700020346C34693462346534723461346434ED
:0600800061340A34003473
:100F02008316031318139816181218158312031355
:100F120098170B178B17831603138C16061086105F
:100F2200061186110F3086000A128A11CB270A1287
:100F32008A11831203138601831603138601932FEA
:100F42000A128A110028F200F001F101BD2F700887
:100F5200720784000A128A1103200A128A1183126C
:100F6200031399000130F0070318F10A0030F1076A
:100F72000C1EBC2FBD2FB92F7008720784000A12F5
:100F82008A1103200A128A11003A031DC92FCA2F9F
:100F9200A82F0800831203130618D02FD12FE32F96
:100FA20001300A128A11A4270A128A11831203132A
:100FB200061CDC2FDD2FD72F21300A128A11A4271D
:100FC2000A128A11831203138618E82FE92FFB2FC6
:100FD20011300A128A11A4270A128A1183120313EA
:100FE200861CF42FF52FEF2F2E300A128A11A42718
:0E0FF2000A128A11080083010A128A11812F47
:02400E00393F38
:00000001FF
