:020000040000FA
:100000000A128A11E42FFF1B0D2883137F18831710
:100010000008840A0319FF0A08007F087F398A0054
:0A0020000408840A0319FF0A820095
:100290003134323433343434F000700883120313B1
:1002A00088000800F0007008831203139900831679
:1002B0000313981C5C295D295729080019308316FF
:1002C00003139900181398161812181583120313A4
:1002D0009817181318160800831203134308FC001C
:1002E0004208FB004108FA004008F90079300A1280
:1002F0008A11BE220A128A110800831203131819E8
:10030000822983298729981C8629872989291812F7
:1003100018168C1E8C298D297D291A080800F100D9
:100320006400831603178C18962997299029710861
:10033000831203178D003F30F000700883160317F7
:100340008C050C14831203170C080800F500783094
:10035000F2007208F600F70176080A128A118F215E
:100360000A128A11F20077087507F30073088400F7
:100370007208831380000130F2007208F607013022
:10038000F2007208F70704307702031CC829C92954
:10039000AC290800F500F401F40AF601E729760813
:1003A0007007F1007108840083130008F2007608DA
:1003B0007507F30073088400000872060319E12929
:1003C000E229E329F4010130F1007108F607043055
:1003D0007602031CEC29ED29CF2974080800F300EC
:1003E00083120313891473080A128A114C210A120A
:1003F0008A118312031309100430F200E430F10073
:10040000F10B002AF20B002A00008312031389105B
:100410000430F200E430F100F10B0C2AF20B0C2A4C
:1004200000008312031389140800F30083120313DE
:10043000891473080A128A114C210A128A11831234
:10044000031309140430F200E430F100F10B262A02
:10045000F20B262A00008312031389100430F200E5
:10046000E430F100F10B322AF20B322A0000831241
:10047000031389140800F701522A770874078400CF
:1004800075080318750AFF000A128A1103200A1260
:100490008A110A128A1115220A128A110130F600F5
:1004A0007608F70777087407840075080318750A3B
:1004B00083120313FF000A128A1103200A128A1101
:1004C000003A031D642A652A3D2A0800F4017D2AAA
:1004D00074087107840072080318720AFF000A1278
:1004E0008A1103200A128A110A128A1152210A1251
:1004F0008A110130F3007308F4077408710784004F
:1005000072080318720A83120313FF000A128A1179
:1005100003200A128A11003A031D8F2A902A682AA2
:100520000800F200831603178C18972A982A922A3B
:100530007208831203178D0070088C003F30F100A1
:100540007108831603178C058312031303108B1F86
:10055000AA2AAB2AAC2A03148B13831603170C1593
:1005600055308D00AA308D008C140C1183120313AA
:10057000031CBB2ABC2ABD2A8B170800F700783061
:10058000F3007308F600F80178087707F3007308A2
:10059000840083130008F4007408F00076080A123F
:1005A0008A1191220A128A110D30F400FB30F300F7
:1005B000F30BD82AF40BD82ADD2A0130F300730894
:1005C000F6070130F3007308F80704307802031CC3
:1005D000EA2AEB2AC42A080083120313891009109F
:1005E0001A30F500F830F400F40BF42AF50BF42A75
:1005F000000083120313891438300A128A11EF2184
:100600000A128A110730F5007D30F400F40B062B36
:10061000F50B062B38300A128A11EF210A128A11C3
:10062000C730F400132BF40B122B162B172B38307A
:100630000A128A11EF210A128A1108300A128A114D
:10064000EF210A128A110F300A128A11EF210A12C1
:100650008A1101300A128A11EF210A128A113830E8
:100660000A128A11EF210A128A1180300A128A11A5
:10067000EF210A128A110800FB00FD01902BD030F7
:10068000F0000730F1000A128A117D210A128A1146
:10069000F8007808FC007C080A128A1152210A121C
:1006A0008A117C080319552B562B7F2B7C08F800E8
:1006B0007D087B07F900790884007808831380009F
:1006C00080300A128A11EF210A128A115730F40081
:1006D0008930F5000A128A113B220A128A117D081C
:1006E000C03E0A128A11EF210A128A117C30F400EE
:1006F0008830F5000A128A113B220A128A11023050
:10070000FA000430F900BA30F800F80B852BF90B29
:10071000852BFA0B852B00000130F8007808FD07C7
:1007200004307D02031C952B962B3F2B08000130D3
:100730000A128A11EF210A128A1182300A128A11D2
:10074000EF210A128A11EC30F4008830F5000A1209
:100750008A113B220A128A11EB30F1008830F20034
:100760000A128A1166220A128A11C3300A128A11E9
:10077000EF210A128A117330F4008830F5000A1252
:100780008A113B220A128A11F930F1008830F200F6
:100790000A128A1166220A128A1106308312031382
:1007A000A2001330A100AD30A000A00BD52BA10BEF
:1007B000D52BA20BD52B01300A128A11EF210A1278
:1007C0008A11C0300A128A11EF210A128A112730C9
:1007D0000A128A113C230A128A1123300A128A1142
:1007E000A6210A128A11D030F0000730F1000A1257
:1007F0008A117D210A128A1183120313A000200896
:10080000AC002C080A128A1152210A128A112A30CD
:10081000831203132C06031D0E2C0F2C202C2730C3
:10082000A0002008F00023300A128A11CA210A12FF
:100830008A1183120313A1002108AB002B08212C7D
:100840000030080083160313871707130A128A1152
:100850005E210A128A118316031388010910891078
:100860000A128A116C210A128A11831203130611CB
:10087000D030F0000730F1000A128A117D210A12EF
:100880008A1183120313BB003B08BF003F080A1202
:100890008A1152210A128A11831203133F08031985
:1008A000522C532C382C0A128A11EC220A128A116B
:1008B00001300A128A11EF210A128A1180300A12BD
:1008C0008A11EF210A128A114B30F4008830F500AA
:1008D0000A128A113B220A128A114A30F10088302A
:1008E000F2000A128A1166220A128A11C0300A1214
:1008F0008A11EF210A128A112130F4008930F500A3
:100900000A128A113B220A128A112030F100893022
:10091000F2000A128A1166220A128A110830831222
:100920000313BD009D30BC000530BB00BB0B962CF3
:10093000BC0B962CBD0B962C01300A128A11EF21AC
:100940000A128A1180300A128A11EF210A128A11C2
:10095000AF30F4008830F5000A128A113B220A12E7
:100960008A113830F1008830F2000A128A116622AA
:100970000A128A11D030F0000730F1000A128A11F1
:100980007D210A128A1183120313BB003B08BF00AA
:100990003F080A128A1152210A128A1101300A12E2
:1009A0008A11EF210A128A11C0300A128A11EF212E
:1009B0000A128A11831203133F080A128A111522A0
:1009C0000A128A110B3083120313BD002630BC00BB
:1009D0005D30BB00BB0BEA2CBC0BEA2CBD0BEA2C38
:1009E000A52D0A128A1197230A128A118312031362
:1009F000BB003B08BE003E03031DFF2C002D392D1C
:100A000001300A128A11EF210A128A1180300A126B
:100A10008A11EF210A128A111430F4008830F5008F
:100A20000A128A113B220A128A111330F10088300F
:100A3000F2000A128A1166220A128A118312031323
:100A400006150B3083120313BD002630BC005D3049
:100A5000BB00BB0B292DBC0B292DBD0B292D08304C
:100A60000A128A11EF210A128A1183120313061146
:100A7000382C01300A128A11EF210A128A118030B3
:100A80000A128A11EF210A128A11A030F40088306C
:100A9000F5000A128A113B220A128A119F30F100D6
:100AA0008830F2000A128A1166220A128A110B306B
:100AB00083120313BD002630BC005D30BB00BB0BAE
:100AC0005F2DBC0B5F2DBD0B5F2D08300A128A1104
:100AD000EF210A128A11382C0A128A11BA250A1239
:100AE0008A11382C01300A128A11EF210A128A1158
:100AF00080300A128A11EF210A128A118F30F40015
:100B00008830F5000A128A113B220A128A117E30BF
:100B1000F1008830F2000A128A1166220A128A1144
:100B20000B3083120313BD002630BC005D30BB00C8
:100B3000BB0B982DBC0B982DBD0B982D08300A12BD
:100B40008A11EF210A128A11382C831203133F08ED
:100B5000BB00BC013C08003A0319AF2D722D3B08C5
:100B6000233A03196C2D093A0319F12C722D0A123C
:100B70008A11002801300A128A11EF210A128A1103
:100B800080300A128A11EF210A128A112E30F400E5
:100B90008930F5000A128A113B220A128A112D307F
:100BA000F1008930F2000A128A1166220A128A11B3
:100BB000C0300A128A11EF210A128A11C030F400E3
:100BC0008830F5000A128A113B220A128A11BF30BE
:100BD000F1008830F2000A128A1166220A128A1184
:100BE000063083120313AF001330AE00AD30AD00FA
:100BF000AD0BF82DAE0BF82DAF0BF82D0A128A11A4
:100C000097230A128A11003A0319072E082E992FEA
:100C100083120313B901912F01300A128A11EF21B7
:100C20000A128A1182300A128A11EF210A128A11DD
:100C3000CF30F4008830F5000A128A113B220A12E4
:100C40008A11CE30F1008830F2000A128A11662231
:100C50000A128A11C1300A128A11EF210A128A116E
:100C60006F30F4008830F5000A128A113B220A1214
:100C70008A115C30F1008830F2000A128A11662273
:100C80000A128A110B3083120313AF002630AE0014
:100C90005D30AD00AD0B4A2EAE0B4A2EAF0B4A2E87
:100CA00001300A128A11EF210A128A1130300A1219
:100CB0008A113C230A128A11D030F0000730F1006B
:100CC0000A128A117D210A128A1183120313AD00C0
:100CD0002D08BA003A080A128A1152210A128A1102
:100CE0002A30831203133A06031D772E782E912F94
:100CF00001300A128A11EF210A128A1180300A1279
:100D00008A11EF210A128A112730F4008830F50089
:100D10000A128A113B220A128A112630F100883009
:100D2000F2000A128A1166220A128A11C0300A12CF
:100D30008A11EF210A128A116D30F4008830F50013
:100D40000A128A113B220A128A110030F1008830FF
:100D5000F2000A128A1166220A128A110B308312DB
:100D60000313AF002630AE005D30AD00AD0BB62EE4
:100D7000AE0BB62EAF0BB62E01300A128A11EF2140
:100D80000A128A1134300A128A113C230A128A117B
:100D9000D030F0000730F1000A128A117D210A12CA
:100DA0008A1183120313AD002D08BA003A080A1203
:100DB0008A1152210A128A112A30831203133A0629
:100DC000031DE32EE42E912F3430AD002D08F000EA
:100DD00030300A128A11CA210A128A1183120313AF
:100DE000AE002E08B8003803031DF72EF82E4D2F45
:100DF00034300A128A11BE220A128A1101300A12F4
:100E00008A11EF210A128A1180300A128A11EF2109
:100E10000A128A114F30F4008930F5000A128A1143
:100E20003B220A128A114E30F1008930F2000A1278
:100E30008A1166220A128A11C0300A128A11EF2121
:100E40000A128A110730F4008930F5000A128A115B
:100E50003B220A128A110630F1008930F2000A1290
:100E60008A1166220A128A110B3083120313AF0013
:100E70002630AE005D30AD00AD0B3C2FAE0B3C2FED
:100E8000AF0B3C2F83120313B901B90A08300A12C1
:100E90008A11EF210A128A11912F01300A128A1148
:100EA000EF210A128A1180300A128A11EF210A12E8
:100EB0008A113A30F4008930F5000A128A113B2277
:100EC0000A128A113930F1008930F2000A128A11AF
:100ED00066220A128A11C0300A128A11EF210A1200
:100EE0008A114530F4008930F5000A128A113B223C
:100EF0000A128A114430F1008930F2000A128A1174
:100F000066220A128A110B3083120313AF002630B7
:100F1000AE005D30AD00AD0B8B2FAE0B8B2FAF0B4A
:100F20008B2F8312031339080319972F982F0C2E38
:100F3000E32F01300A128A11EF210A128A11803040
:100F40000A128A11EF210A128A111430F400893032
:100F5000F5000A128A113B220A128A111330F1009D
:100F60008930F2000A128A1166220A128A11C030F0
:100F70000A128A11EF210A128A11DE30F400883039
:100F8000F5000A128A113B220A128A11DD30F100A3
:100F90008830F2000A128A1166220A128A110B3076
:100FA00083120313AF002630AE005D30AD00AD0BF1
:100FB000D72FAE0BD72FAF0BD72F08300A128A11BD
:100FC000EF210A128A1108000A128A1148210A1216
:100FD0008A11C0000A128A1149210A128A11C1001D
:100FE0000A128A114A210A128A11C2000A128A11AF
:100FF0004B210A128A11C30083010A128A11222C82
:101000000A346F342034503449344E34203465343B
:10101000203461347034653472347434653420346F
:101020002A340A3400340A34413463346534733466
:1010300073346F3420345034653472346D34693411
:101040007434693464346F34213400340A344434E1
:101050006934673469347434653420346E346F34E1
:10106000763461346D3465346E34743465340034F0
:101070000A347034613472346134203463346F3430
:101080006E34663469346734753472346134723462
:101090000A3400340A34503472346534733473348F
:1010A00069346F346E34653420342A34203470341B
:1010B00061347234613400340A34503449344E346B
:1010C00020346534203461347034653472347434BF
:1010D000653420342A340A3400346F3420345034D8
:1010E00049344E34203465342034613470346534EE
:1010F00072347434653420342A3400340A344F3462
:101100007034633461346F34203469346E3476342F
:1011100061346C34693464346134213400344F34C4
:101120007034633461346F34203449346E3476342F
:1011300061346C34693464346134213400340A34E9
:10114000413463346534733473346F3420344E3433
:1011500065346734613464346F342134003470345E
:10116000613472346134203463346F346E346634E5
:1011700069346734753472346134723400340A343B
:1011800041347534743465346E3474346934633482
:101190006134633461346F34213400340A344434AC
:1011A0006934673469347434653420346F342034DE
:1011B0006E346F3476346F3400340A34413475340D
:1011C000743465346E347434693463346134643433
:1011D0006F34213400340A34443469346734693458
:1011E0007434653420346F342034503449344E34F0
:1011F00000340A3465342034613470346534723418
:101200007434653420342A340A3400340A344334C4
:1012100061346434613473347434723461346434EA
:101220006F34213400340A345534733475346134E6
:10123000723469346F3420346E3461346F34003466
:101240000A3465346E347434723461347234203448
:101250006F3475342034233400340A344E3465340A
:1012600063346534733473346134723469346F3485
:1012700000340A34533465346E34683461342034B5
:101280006E3461346F3400340A3443346F346E3456
:101290006634653472346534213400340A3455348C
:1012A000733475346134723469346F3400345034BB
:0812B00049344E343A34003495
:02400E00393F38
:00000001FF
